:400000000080002011000000910700009107000080B500AF034A044B1B68136000F0D6FE00F0BAFBBC760040FA460040080002230000087608000323000010760800042380
:400040000000187608000523000020760500062300002070050007230000307005000823000040700500FE230000507070000A22000000511000FE220000C051FF0F0C226F
:400080000000000001000D220000FF0F80030E220000001480010F2200000018000210220000001A8000112200000041800012220000004280001322000000430003142208
:4000C0000000004480001522000000480001162200000049800017220000004C000118220000004D2000FE220000005007001A23000078520800FE230000784508001C23E3
:400100000000005180001D230000804C80001E230000004780001F2300008047800020230000801980002123000080178000222300008048800023230000804380002423BD
:4001400000008042800025230000804180002623000000408000FE2300008040010000000100000001000000000001400100000000000040010000000020014001000000E2
:4001800000200040000000000000000000000000000000000000000000000000000000000000000000000000000000000000000000000000000000000000000000000000DF
:4001C00000000000000000000000000000000000300000000000000000000000000000000000000000000000000000000000000000000000000000000000000000000000CF
:4002000000000000000000000000000000000000000000000000000000000000000000000000000000000000000000000000000000000000000000800000400000000000FE
:40024000000000000000000000000000000000000000000000000000000000000000000000000000000000000000000000000000000000000000000000000000000000007E
:40028000000000000000000000000000000000000000000000000000000000000000000000000000000000000000408000000000000000000000000000000000000000007E
:4002C00000000000000000000000000000000000000000000000000000000000000000000000000000000000000000000000000000000000000000000000000000000000FE
:4003000000000000000000000000000000000000000000000000000000000000000000000000000000000000000040800000000000000000000000000000000000000000FD
:40034000000000000000000000000000000000000000000000000000000000000000000000000000000000000000000000000000000000000000000000000000000000007D
:40038000000000000000000000000000000000000000000000000000000000000000000000000000000000000000408000000000000000000000000000000000000000007D
:4003C00000000000000000000000000000000000000000000000000000000000000000000000000000000000000000000000000000000000000000000000000000000000FD
:4004000000000000000000000000000000000000000000000000000000000000000000000000000000000000000000000000000000004080000000000000000000000000FC
:40044000000000000000000000000000000000000000000000000000000000000000000000000000000000000000000000000000000050000000000000000000000000002C
:40048000000000000000000000000000000000000000000000000000000000000000000000000000000000000000000000000000000000000000000000000000000000003C
:4004C00000000000000000000000000000000000000000000000000000000000000000000000000000000000000000000000000000000A00000000000000000000000000F2
:4005000000000000000000000000000000000000000000000000000000000000000000000000000000000000000000000000000000000000000000000000000000000000BB
:4005400000000000000000000000000000000000000000000000000000000000000000000000000000000000000000000000000000000A0000000000000000000000000071
:40058000000000000000000000000000000000000000000000000000000000000000000000000000000000000000000000000000000000000000000000000000000000003B
:4005C0000000000000000C000000000000000000000000000000000000000000000000000000000000000000000000000000000000000000000000000000000000000000EF
:400600000000000000000000000000000800000000000040000000000000000000000000000000000000000000000000000000000000000000000000000000000000000072
:40064000000000000000000000000000000000000000000000000000000000000000000000000000000000000000000000000000000000000000000000000000000000007A
:4006800000000000000000000000000000000000000000000000000000000000000000000000000000000000000000000000000008000040000000000000000000000000F2
:4006C00000000000000000000000000000000000000000000000000000000000000000000000000000000000000000000000000000000000000000000000000000000000FA
:40070000000000000A00000000000000000000000000020000000000400000000000000000000000C000000010B5054C237833B9044B13B10448AFF300800123237010BD0B
:400740002881FF1F000000003C450000084B10B51BB108480849AFF300800848036803B910BD074B002BFBD0BDE81040184700BF000000003C4500002C81FF1F0881FF1FF8
:400780000000000080B500AF00F0CCFAFEE700BF80B400AFFEE700BF80B586B000AF224B7B61224B3B61204B7B6135E03B691B68FB603B695B68BB603B699B683B60002343
:4007C0007B600CE0FB681A68BB681A60BB680433BB60FB680433FB607B6804337B607A683B689A42EED13B69DB683B6000237B6008E0BB6800221A60BB680433BB607B68B2
:4008000004337B607A683B689A42F2D13B6910333B617B69013B7B617B69002BC6D103F04FFEFFF7AFFFFEE701000000E047000080B582B000AF174B174A1A60174A174B56
:400840001B6843F40073136000237B600FE07B68032B04D8124A7B6852F8233000E0114B11497A6841F822307B6801337B607B682F2BECD90D4B1B78DAB20D4B1A700D4B7A
:40088000094A1A6000F086F90B4B00221A600837BD4680BD0CED00E00004FA0514ED00E000000000910700000080FF1FBC7600400481FF1F08ED00E00081FF1F80B584B0A6
:4008C00000AFF860B9607A60F868B9687A6803F01DFE1037BD4680BD80B584B000AFF860B9607A60F868B9687A6803F00FFE1037BD4680BD80B483B000AF0346FB71FEE709
:4009000080B483B000AF434B00221A60424B10221A70424B01221A70414B00221A70414B4FF498721A80404B01221A703F4B03221A703F4B3F4A92B21A803F4B47F6080216
:400940001A803E4B00221A803D4B4FF480421A803C4B09221A703C4B0B221A703B4B19221A703B4B1B221A70BFF35F8F394B01221A70BFF35F8F00BF2A4B1B889BB2002B9F
:40098000FAD100237B600DE07B68DA00324B13441946324A7B6852F823309BB20B807B6801337B607B68252BEED9BFF35F8F294B01221A70BFF35F8F00BF294B1B78DBB21D
:4009C00003F00103002BF8D100BF264B1B78DBB203F00103002BF8D100BF234B1B78DBB203F00103002BF8D100BF204B1B78DBB203F00103002BF8D100BF1D4B1B78DBB21D
:400A000003F00103002BF8D10C37BD465DF8047B704700BF4881FF1F007600401070004019700040007800400278004003780040047800402C000000067800400476004088
:400A40000676004029700040397000404970004059700040147000400C78004040450000187000402870004038700040487000405870004080B582B000AF294B06221A7025
:400A8000284B52221A70284B284A1278D2B21A70274B4FF4E2621A80264B41F251221A800023FB7019237B6014E0FB785B00DAB2214B1B78DBB203F00103DBB21343DBB21E
:400AC00003F00303FB704FF4F07000F0DDFF7B68013B7B607B68002B02D0FB78032BE4D17B68002B02D10320FFF704FF134B4FF480721A80114B07221A70114B00221A70B2
:400B0000104B48221A700D4B00221A700E4B00221A700E4B02221A700837BD4680BD00BF0043004000420040A14600400F0100492242004020420040254200400440004022
:400B40000640004008400040094000400140004080B483B000AF0B4B1B78FB710A4AFB7903F00703DBB21370084AFB791B09DBB21370074B44221A700C37BD465DF8047BC7
:400B8000704700BFCF0100496E5800406F5800407658004080B500AF72B6FFF7B1FE1E4A1D4B1B78DBB243F00203DBB213701B4A1A4B1B78DBB243F00203DBB21370184A0E
:400BC000174B1B78DBB243F04003DBB21370154A144B1B78DBB243F01003DBB21370124812490A22FFF778FE114A114B1B78DBB243F00803DBB213700E4B61221A70FFF7EB
:400C000039FF0C4BC1221A70FFF7A2FF0A4804490E22FFF753FE80BD0350014013500140A0430040C2430040F05100401C0700002243004000480040B043004080B485B0C1
:400C400000AF78600B467B800023FB810BE07B88013B7A6813441B789AB2FB891344FB817B88013B7B807B88002BF0D1FB895B429BB218461437BD465DF8047B704700BFDC
:400C800080B487B000AFF860B9601346FB800023FB750023BB8210E0BA8AFB6813441B78DAB2BB8AB9680B441B789A4202D00223FB7506E0BB8A0133BB82BA8AFB889A420B
:400CC000EAD3FB7D18461C37BD465DF8047B704780B586B000AFF860B9607A600023FB75FB680F4A934205D0FB68002B02D0002001F054F80BE07B68013B7B60FA68BB68FB
:400D00001A447B6813441A78FB7D1344FB757B68002BF0D1FB7D18461837BD4680BD00BF0080004080B582B000AF06237B60002000F074F80346002B01D100237B601B4B57
:400D40001B681B68002000211A46FFF7C1FF0346FB70174B1B681B78FA78D31AFB70FB785B42FB70124B1B681B78FA789A4204D10E4B1B681B68002B02D1002001F00EF89B
:400D80000C4B1B78DBB203F0C003402B02D07B68002B05D0074B00221A70002000F0B4F800F00AF80837BD4680BD00BF1081FF1F0C81FF1FFA46004080B500AF024B80224F
:400DC0001A7000F0F7FF80BDFA46004080B582B000AF104B1B78DBB203F0C003802B15D10023FB710B4B00221A70FB790220194600F048FD0346002B08D0FB7902201946F2
:400E000000F040FD0346184600F006F80837BD4680BD00BFFA460040004700BF90B587B000AF0346FB71FB790320194600F02AFD034601331C02FB790420194600F022FD9E
:400E400003462344FB600023FB740023BB74FB790320194600F016FD034601331B027B6111E07B691B78FB72FB7A002B04D0FB7AFF2B01D00123FB74BA7CFB7A1344BB7497
:400E80007B6901337B617A69FB689A42E9D3FB790320194600F0F6FC034601331B02DB087B61FB68174A934202D0FB68DB0801E04FF40043FB600AE07B6903F190431B7894
:400EC000DAB2BB7C1344BB747B6901337B617A69FB689A42F0D3BB7C5B42BB74BC7CFB790120194600F0CEFC03469C4202D1FB7C002B01D1062300E0002318461C37BD4699
:400F000090BD00BFC0FF030080B5ADF52E7D00AF0246FB1D1A700023A7F8B2320A2387F8B132002387F8B0320023A7F8AE3200F031FE0346002B02D0002000F02FFF01F0D9
:400F4000A7F962B6002387F8B532FB1D1B78002B02D0FB1D1B7800E0FF2307F5AA7107F5207208464FF4967101F0E0F9C7F89402FB1D1B78002B04D097F8B132013B87F8A8
:400F8000B13297F8B132002B03D0D7F89432002BDBD1D7F89432002B01D000F016BCB7F88032062B04D907F5AA731B78012B03D0042387F8B5324FE007F5AA73DB789BB290
:400FC0001B029AB207F5AA739B789BB21343A7F8B232B7F8B2320733B7F88022934205D8B7F8B2320733B3F5967F03D9032387F8B53231E0B7F8B232053307F5AA72D35C51
:401000009BB21B029AB2B7F8B232043307F5AA71CB5C9BB21343A7F89232B7F8B232063307F5AA72D35C172B03D0042387F8B53212E0B7F8B23204339BB207F5AA721046C0
:401040001946FFF7FBFD03461A46B7F89232934202D0082387F8B5320023A7F8B63297F8B532002B40F0A68307F5AA731B7987F89132042387F8B53207F5AA735B78313B57
:40108000142B00F23B8301A252F823F0E110000079120000FD16000013130000B5140000FD160000C71400001B1500001313000069150000E5160000FD160000FD160000E0
:4010C000FD160000FD160000FD160000FD160000FD160000FD160000FD1600001B11000097F8B032012B17D1B7F8B232002B13D10020FFF793FE0346002B0CBF01230023EB
:40110000DBB21A4607F5AA731A710123A7F8B632002387F8B5324DE34CE397F8B032012B40F0A980B7F8B232032B06D0B7F8B23240F22312934240F09E8007F5AA739B79B4
:401140009BB21B029AB207F5AA735B799BB21343A7F88E320023A7F8A632002387F8B5320023A7F8B632B7F8B232032B0BD0B7F8B232DA1E07F1280107F5AA730733084614
:40118000194603F0C3F997F891323F2B14D997F891325BB2002B0FDBB7F88E3203F1806303F500631B01C7F8A8321023A7F8A4324023A7F8A63219E097F89132032B11D8CA
:4011C00097F891321A02B7F88E3213441B02C7F8A8324FF48073A7F8A4324FF48073A7F8A63203E0092387F8B532E3E2B7F88E22B7F8A6329A4201D2002300E00A2387F82F
:40120000B53297F8B532002B00D0D3E207F12802B7F8A432D7F8A80211461A46FFF730FD034687F8B53297F8B532002B23D197F89132032B1FD8B7F8AE22B7F8A4329A420C
:4012400019D997F8913203F510331A02B7F88E3213445B01C7F8A832B7F8A43207F128021344D7F8A80219462022FFF709FD034687F8B5329EE29DE297F8B032012B47D1A1
:40128000B7F8B232012B43D197F89132032B3FD8D44B1B681B681B0C87F88D3297F8912297F88D329A4208D1CE4B1B681B681B0A9BB2DBB2A7F8A2320DE097F8912297F8A6
:4012C0008D329A4203D90023A7F8A23203E04FF48073A7F8A232B7F8A232DAB207F5AA731A71B7F8A2321B0A9BB2DAB207F5AA735A7107F5AA73FF229A7107F5AA730022BD
:40130000DA710423A7F8B632002387F8B53251E250E207F5AA735B78342B23D197F8B032012B40F04782B7F8B232032B40F0428297F891323F2B08D997F891325BB2002B15
:4013400003DB1023A7F8AE3203E04FF49073A7F8AE32B7F8AE3207F12802104600211A4603F0DFF897F8B032012B40F0A280B7F8B232022B40F29D80B7F8AE3207F1280234
:40138000D118B7F8B232DA1E07F5AA7307330846194603F0BBF8B7F8AE22B7F8B23213449BB2033BA7F8AE3297F891323F2B0DD997F891325BB2002B08DB00F0A9FC1023C9
:4013C000A7F8B2324023A7F8A03207E04FF49073A7F8B2324FF48073A7F8A032B7F8AE22B7F8B2329A425DD107F5AA739B799BB21B029AB207F5AA735B799BB21343A7F811
:40140000AE32B7F8AE22B7F8A0329A4201D2002300E00A2387F8B53297F8B532002B00D0C8E197F891323F2B27D897F891329BB21B029AB2B7F8AE321344A7F88A32694BB5
:401440001B681B681B0AA7F89E32664B1B681B68DBB2002B04D0B7F89E320133A7F89E32B7F88A22B7F89E329A4206D20A2387F8B5320023A7F8AE329CE197F89102B7F85C
:40148000AE1207F12802B7F8B23200F095FB0346002B01D00A2300E0002387F8B53200F0CDFC02E0032387F8B5320023A7F8AE3280E17FE197F8B032012B03D10023A7F89F
:4014C000AE3282E176E197F8B032012B24D1B7F8AE22B7F8B2321344B3F5967F18D8002387F8B532B7F8AE3207F12802D118B7F8B22207F5AA7304330846194603F006F816
:40150000B7F8AE22B7F8B2321344A7F8AE3203E0032387F8B5324DE14CE1B7F8B232002B1ED107F12003304A92E8030083E80300012387F8B0320823A7F8B6320023A7F8D3
:40154000AE32B7F8B62207F5AA73191D07F120030846194602F0DAFF002387F8B53229E1042387F8B53225E197F8B032012B40F0B880B7F8B232032B40F0B38007F5AA73BA
:401580009B799BB21B029AB207F5AA735B799BB21343A7F8883297F891323F2B28D997F891325BB2002B23DBB7F888321B01C7F88432B7F888323F2B01D8002300E00A235D
:4015C00087F8B53297F8B532002B00D0F2E00748D7F884121022FFF77BFB034687F89D3227E000BF1081FF1FD84500000080004097F891321A02B7F8883213441B02C7F8FD
:401600008432B7F88832FF2B01D8002300E00A2387F8B53297F8B532002B00D0CAE00020D7F884124FF48072FFF752FB034687F89D3297F891323F2B23D897F8913203F542
:4016400010331A02B7F8883213445B01C7F884320023A7F89A3210E0B7F89A22D7F8843213441B78DAB297F89D32134487F89D32B7F89A320133A7F89A32B7F89A321F2BB4
:40168000EAD9B7F88832A7F8823297F89132032B19D1B7F88232FF2B15D10520002100F0F1F80346DBB297F89D22D31A87F89D320620002100F0E6F80346DBB297F89D2217
:4016C000D31A87F89D3297F89D325B42DAB207F5AA731A71002387F8B5320123A7F8B63268E067E00020FFF799FB0346002B02D13D4B80221A7000F05DFB5BE03B4B1B6890
:40170000002B52D097F8B032012B4ED107F5AA735A7807F118031A7007F11803B7F8B2225A8007F1180307F5AA7204325A6007F10C03184600210C2202F0F3FE07F10C03EF
:4017400007F5AA7204329A60284B1B6807F1180107F10C0208461146984707F10C039B88A7F8B632B7F8B632B3F5937F07D307F10C039A6807F5AA7304339A4208D007F1AF
:401780000C039B68002B0AD1B7F8B632002B06D00E2387F8B5320023A7F8B63209E007F10C031B6887F8B53203E0052387F8B532FFE700BF97F8B51207F5AA72B7F8B63244
:4017C000084611461A4600F013F8FB1D1B78002B3FF4B8AB97F8B032012B3FF4B3AB07F52E77BD4680BD00BFFA4600405081FF1F80B584B000AF03463960FB711346BB8046
:401800003B6801221A703B680133FA791A703B680233BA88D2B21A703B680333BA88120A92B2D2B21A70BB8804339BB238681946FFF704FA0346FB81BB8804333A681344E1
:40184000FA89D2B21A70BB8805333A681344FA89120A92B2D2B21A70BB8806333A68134417221A70BB8807339AB23B1D386811461A46962300F020FD034618461037BD460B
:4018800080BD00BF80B586B000AF03460A46FB711346BB710223FB740023FB60FB79013B0B2B00F2AF8001A252F823F0DD180000F7180000111900002719000041190000A7
:4018C0005B1900008B19000075190000A1190000B7190000D1190000EB190000BA7913461B069B1A1B0203F57F3303F570737B610123FB748CE0BA7913461B069B1A1B026C
:4019000003F57F3303F2C1337B610423FB747FE0BA7913461B069B1A1B0203F57F3303F2C5337B6174E0BA7913461B069B1A1B0203F57F3303F2C9337B610423FB7467E02A
:40194000BA7913461B069B1A1B0203F57F3303F574737B610123FB745AE0BA7913461B069B1A1B0203F57F3303F2D1337B610123FB744DE0BA7913461B069B1A1B0203F581
:401980007F3303F2D6337B6142E0BA7913461B069B1A1B0203F57F3303F2D2337B6137E0BA7913461B069B1A1B0203F57F3303F575737B612CE0BA7913461B069B1A1B02F3
:4019C00003F57F3303F576737B610423FB741FE0BA7913461B069B1A1B0203F57F3303F577737B610123FB7412E0BA7913461B069B1A1B0203F57F3303F578737B61042370
:401A0000FB7405E0002000F0C9F900237B6100BFFB7C012B03D17B691B78DBB2FB60FB7C022B0BD17B691B78DBB2FB607B6901331B78DBB21B02FA681343FB60FB7C042BFF
:401A40001BD17B691B78DBB2FB607B6901331B78DBB21B02FA681343FB607B6902331B78DBB21B04FA681343FB607B6903331B78DBB21B06FA681343FB60FB6818461837CA
:401A8000BD4680BD000000000230800803D000BF01380046FCD17047EFF3108072B6704780F31088704700BF80B582B000AF00F03BFA4FF0FF337B6000F06AFB0346002B75
:401AC00024D1012000F032FB0346072B1BD11348022100F04BFA0346022B0DD100237B6002E0012000F098F90D4B1B78DBB203F00203002BF5D006E0094B1B78DBB203F016
:401B00000203002BE3D000F077FB01E004237B607B6818460837BD4680BD00BF6481FF1F2247004080B582B000AF00F0FDF900F02FFB0346002B23D100F086FB78607B68A8
:401B4000072B1AD102E0012000F066F9104B1B78DBB203F00203002BF5D00D4B1B78DBB203F00203002B08D0094B1B78DBB29B08DBB2002B01D100237B6000F03DFB01E078
:401B800004237B607B6818460837BD4680BD00BF2247004080B582B000AFFFF7C3FF78607B68002B02D1FFF77FFF78607B6818460837BD4680BD00BF80B586B000AFBA6075
:401BC0001A460346FB730B46BB811346FB8000237B61FB7B3F2B04D8FB7B042B01D901237B61FB7B5BB2002B01DA01237B61FB7B3F2B04D9FB7B412B01D901237B61FB7BBB
:401C00003F2B06D8BB89B3F5807F0CD901237B6109E0BB89802B01D901237B61FB88102B01D001237B61BB68002B01D101237B617B69002B62D100F0ABFA0346002B5BD1B4
:401C4000F97BBA89FB8808461146BA6800F0BAF978617B69072B4CD102E0012000F0DCF8294B1B78DBB203F00203002BF5D0264B1B78DBB203F00203002B09D0224B1B78E4
:401C8000DBB29B08DBB2002B02D100237B6102E04FF0FF337B617B69002B2AD11B4B1A781A4B5B78F87BB98900F0F4F978617B69072B1ED102E0012000F0AEF8124B1B7808
:401CC000DBB203F00203002BF5D00F4B1B78DBB203F00203002B09D00B4B1B78DBB29B08DBB2002B02D100237B6102E04FF0FF337B6100F081FA01E004237B617B69184696
:401D00001837BD4680BD00BF224700406481FF1F80B582B000AFFFF7BFFE0346FB71194A184B1B78DBB243F00803DBB21370164A154B1B78DBB243F00803DBB21370134B6B
:401D4000C8221A70124A124B1B78DBB243F01003DBB213700F4A0F4B1B78DBB243F01003DBB2137000BF0C4B1B78DBB203F02003002BF8D0FB791846FFF792FE0837BD46BE
:401D800080BD00BFA0430040B043004001470040AC430040BC4300400047004080B483B000AF0346FB7101BE0C37BD465DF8047B704700BF80B400AF054A054B1B78DBB298
:401DC00043F00103DBB21370BD465DF8047B7047F646004080B582B000AF786008E00C4B1B681846FFF750FE7B68A3F500437B607B68B3F5004FF2D8064B1B687A6802FB50
:401E000003F31846FFF740FE0837BD4680BD00BF2081FF1F1881FF1F80B582B000AF0346FB80FB88044A127802FB03F31846FFF72BFE0837BD4680BD1C81FF1F80B582B020
:401E400000AFFFF729FE0346FB7100BF00BF00BF00BF00BF00BF00BF00BF00BF00BF00BF00BF00BF00BF00BF00BF094A084B1B889BB243F004039BB21380054B1B88BFF39C
:401E80006F8FFB791846FFF70BFE0837BD4680BD0048004080B584B000AF03463960FB710F4B1B68FB60FB791F2B02D90020FFF775FFFB7903F01F0310339B00FA6813446B
:401EC0001B68BB60FB7903F01F0310339B00FA6813443A681A60BB6818461037BD4680BD08ED00E080B582B000AF03460A46FB711346BB71BB79072B02D90020FFF74EFFE7
:401F0000FB791F2B02D90020FFF748FFFB7903F01F0303F1604303F56443BA795201D2B21A700837BD4680BD80B582B000AFFFF7B3FD0346FB710B4A0A4B1B78DBB243F06B
:401F40000803DBB21370084A074B1B78DBB243F00803DBB21370FB791846FFF7A1FD0837BD4680BDA0430040B043004080B584B000AF78600B46FB700023FB7314E002E0E6
:401F80000120FFF749FF0D4B1B78DBB203F00103002BF5D0FB7B7A681344094A1278D2B21A70FB7B0133FB73FA7BFB789A42E6D3FB7B18461037BD4680BD00BF2247004071
:401FC0002047004080B489B000AFBA601A460346FB730B46BB811346FB800723FB612B4B1B78DBB203F00203002B45D0284BB6221A70274BD5221A70254B02221A70234BE4
:402000001B78DBB203F00203002B32D1204AFB7B137000237B8308E01D497B8BBA6813441B780B707B8B01337B837A8BFB889A42F2D3FB88B3F5807F20D1FB7B3F2B1DD8AA
:40204000FB7B03F510331A02BB8913445B017B6100237B8309E00E497A8B7B6913441B78DBB20B707B8B01337B837B8B1F2BF2D904E00923FB6101E00423FB61FB6918469F
:402080002437BD465DF8047B704700BF224700402047004090B484B000AF0446084611461A462346FB710346BB800B46BB711346FB700723FB601B4B1B78DBB203F0020315
:4020C000002B26D0184BB6221A70174BD8221A70154B05221A70134B1B78DBB203F00203002B13D1104AFB7913700F4ABB881B0A9BB2DBB213700C4BBA88D2B21A700A4A14
:40210000BB791370084AFB78137004E00923FB6001E00423FB60FB6818461037BD4690BC704700BF224700402047004080B485B000AF0346FB710723FB60134B1B78DBB2E5
:4021400003F00203002B16D0104BB6221A700F4BE1221A700D4B0E221A700B4B1B78DBB203F00203002B03D1084AFB79137004E00923FB6001E00423FB60FB681846143710
:40218000BD465DF8047B7047224700402047004080B582B000AF04237B60FFF77DFC0346FB70124B1B78002B16D1104B01221A7000237B600E4B1B6803F00103002B0BD025
:4021C0000B4A0B4B1B6823F00103136000BF00BF00BF084B01221A60FB781846FFF760FC7B6818460837BD4680BD00BF5481FF1F040008405881FF1F80B582B000AFFFF716
:402200004BFC0346FB710D4B00221A700C4B1B68012B0BD10B4A0B4B1B6843F00103136000BF00BF00BF064B00221A60FB791846FFF736FC0837BD4680BD00BF5481FF1F8F
:402240005881FF1F0400084080B483B000AF07237B600D4B1B78DBB203F00203002B09D00A4BB6221A70094BE0221A70074B0D221A7001E004237B607B6818460C37BD4680
:402280005DF8047B704700BF224700402047004080B500AF62B60020022100F0BFF8024B01221A7080BD00BF5C81FF1F80B500AF012000F083FB80BD80B586B000AFF8608B
:4022C0007A601A460B467B8113467B727B7A9BB21A46920013445B007B820220F968402200F0A2FA05E00120FFF774FD7B8A013B7B82022000F04CFA0346002B02D17B8A6E
:40230000002BF0D1022000F043FA0346002B02D110237B6104E07B687A891A8000237B617B6918461837BD4680BD00BF80B586B000AFF8607A601A460B467B8113467B72DA
:402340007B7A9BB21A46920013445B007B827B89402B01D940237B812F4B1B78002B1BD005E00120FFF736FD7B8A013B7B8200F0E9F90346002B02D17B8A002BF1D100F047
:40238000E1F90346002B13D000F0E8F9FFF78EFF214B00221A700BE000F0E0F90346002B06D000F0CFF90346002B01D0FFF77EFF7B7A9BB21A46920013445B007B8205E04A
:4023C0000120FFF707FD7B8A013B7B82012000F0DFF90346012B02D07B8A002BF0D1012000F0D6F90346012B0CD17B890120F9681A4600F09DFA03461A467B681A8000237B
:402400007B6104E07B6800221A8010237B617B6918461837BD4680BD5C81FF1F80B582B000AF03460A46FB711346BB71084B1B78002B04D100F00EF8054B01221A70FA7976
:40244000BB791046194600F0C1F80837BD4680BD5D81FF1F80B582B000AFFFF71DFB0346FB714B4A4A4B1B78DBB243F00103DBB21370484A474B1B78DBB243F00103DBB2DD
:402480001370454B01221A70444B02221A70444A434B1B78DBB203F07F03DBB213700020FFF7BAFC3F4A3F4B1B78DBB223F00603DBB213703C4A3C4B1B78DBB223F02003D0
:4024C000DBB21370374A374B1B78DBB243F00103DBB213700120FFF79FFC2820FFF79CFC324A324B1B78DBB203F07F03DBB213702E4A2E4B1B78DBB223F04003DBB21370C5
:40250000284A284B1B78DBB243F00203DBB213700220FFF781FC234A224B1B78DBB243F00403DBB21370224B00221A70214B00221A70FB791846FFF7B3FA17201E49FFF73B
:40254000A9FC17200721FFF7CDFC15201B49FFF7A1FC15200721FFF7C5FC18201849FFF799FC18200721FFF7BDFC00201549FFF791FC00200721FFF7B5FC01201249FFF7C3
:4025800089FC01200721FFF7ADFC0837BD4680BDA5430040B54300409D60004009600040106000409443004012600040F8510040846000408560004001310000F530000047
:4025C0001D2A00004D300000A130000080B584B000AF03460A46FB711346BB710023FB7306E0FB7B274A0121D154FB7B0133FB73FB7B002BF5D0244B4FF400021A60224BE6
:402600004FF080721A60204B01221A601E4B02221A601E4B00221A70BB79002B02D0012B04D007E01A4B02221A7007E0184B03221A7003E0164B03221A7000BF154AFB7922
:402640001370154B00221A70144B00221A70144B00221A70134B00221A70134B00221A70124B00221A70124B03221A70114B80221A700120FFF708FA0F4B04221A7010379A
:40268000BD4680BD0482FF1F00E100E06B81FF1F09600040E181FF1F6881FF1FF981FF1F6A81FF1FF481FF1F6981FF1FDC81FF1F28600040086000401260004080B483B0FB
:4026C00000AF0023FB7106E0FB79144A0121D154FB790133FB71FB79002BF5D0104B00221A70104B00221A700F4B00221A700F4B00221A700E4B00221A700E4B00221A7001
:402700000D4B00221A700D4B03221A700C4B80221A700C37BD465DF8047B70470482FF1F6B81FF1F6881FF1FF981FF1F6A81FF1FF481FF1F6981FF1FDC81FF1F2860004006
:402740000860004080B400AF034B1B78DBB21846BD465DF8047B70476881FF1F80B483B000AF0023FB71094B1B78DBB2002B05D0064B1B78FB71054B00221A70FB79184636
:402780000C37BD465DF8047B704700BF6A81FF1F80B483B000AF0346FB71FA79064913465B0013449B000B445B78DBB218460C37BD465DF8047B70477081FF1F80B485B0F7
:4027C00000AF0346FB710023FB81FB79002B20D0FB79082B1DD8FB79013BDBB21B017B737A7B0F4B13441B78DBB29BB203F00F03FB81FB891B0299B27A7B0A4B13441B78B0
:40280000DBB29BB20A4613439BB2FB81FB89023BFB81FB8918461437BD465DF8047B70470C6000400D60004090B484B000AF03463960FB711346BB80FB79002B69D0FB79A9
:40284000082B66D8FB79013BDBB21B017B737A7B324B1344BB60B988FA79314813465B0013449B000344DB889BB2C3F5007399420BD9FA792A4913465B0013449B000B442D
:40288000DB889BB2C3F50073BB807A7B254B13441C46BB881B0A9BB2D9B2FA79204813465B0013449B000344DB78DBB20B43DBB223707A7B1C4B1344BA88D2B21A703B68E8
:4028C000002B0FD00023FB8108E0FB893A6813441A78BB681A70FB890133FB81FA89BB889A42F2D3FA790E4913465B0013449B000B4400225A707A7B0C4B13441846FA79D1
:40290000074913465B0013449B000B445B79DBB203701037BD4690BC704700BF886000407081FF1F0C6000400D6000400E60004080B586B000AF03463960FB711346BB8038
:40294000FB79002B30D0FB79082B2DD83B68002B2AD0FB79013BDBB21B017B757A7D164B13443B61FB791846FFF728FF0346FB81BA88FB899A4201D9FB89BB800023FB8221
:4029800009E0FB8A3A6813443A691278D2B21A70FB8A0133FB82FA8ABB889A42F1D3FB79184600F00BF801E00023BB80BB8818461837BD4680BD00BF8860004080B485B054
:4029C00000AF0346FB71FB79002B1ED0FB79082B1BD8FB79013BDBB21B01FB73FA790D4913465B0013449B000B4400225A70FA7B094B13441846FA79064913465B00134490
:402A00009B000B445B79DBB203701437BD465DF8047B70477081FF1F0E60004080B582B000AF374B1B78BB71BB7903F01003002B63D00123FB71BB795BB2002B13DABB7936
:402A400003F00F03012B02D00023FB711DE000F061F82C4B1B78DBB2DBB25BB2002B14DA0023FB7111E0BB7903F04003002B02D000F094F809E0BB7903F02003002B02D0A1
:402A800000F0B2F801E00023FB71FB79002B34D01B4B1B78BB71BB795BB2002B2DDB1A4B1B78DAB2194B1B78DBB21343BB71184ABB791370164B1B78DBB2BA799A421CD1B0
:402AC000104B1B78FB710E4B1B78DBB223F07F03BB71BB79002B0AD1094B0A4A1278D2B21A70074B1B78DBB203F00F03FB71054B1B78DBB2FA799A42E2D10837BD4680BDF4
:402B0000286000400082FF1F6D81FF1FE481FF1F2960004080B582B000AF1D4B1B78FB711B4AFB7913701A4B1B78FB71FB795BB2002B03DA174AFB79137025E0022000F0A0
:402B40004BFA154B1B78DBB203F06003202B08D0402B0BD0002B0ED100F0BEFC0346FB710CE001F067FC0346FB7107E001F036FC0346FB7102E00023FB7100BFFB79002BE5
:402B800002D1044B03221A700837BD4680BD00BF286000400082FF1F0060004080B500AF104B1B78DBB2062B19D801A252F823F0DF2B0000DF2B0000CD2B0000DF2B000067
:402BC000D32B0000DF2B0000D92B000000F0FEF806E000F0B1F903E000F0DAF900E000BF80BD00BF6B81FF1F80B500AF124B1B78DBB2062B1DD801A252F823F0332C000032
:402C0000332C0000192C0000332C00001F2C0000332C0000252C000000F0DEF80AE000F02FF907E0032000F0D7F9044B03221A7000E000BF80BD00BF6B81FF1F0082FF1FC1
:402C400080B483B000AF0023FB712B4B1B78DBB29AB22A4B1B889BB213449AB2274B1A8019E0FB7903F1804303F5C0431A46244B5B681B78DBB21370214B5B680133204A98
:402C80005360FB790133FB711D4B1B889BB2013B9AB21B4B1A801A4B1B889BB2002B02D0FB79072BDDD9144B1B78DBB2082B02D0FB79002B0FD0134B1B78DBB283F07F034A
:402CC000DB43DAB20F4B1A700F4B0F221A700F4B02221A7005E00C4B02221A700B4B02221A70054AFB791370094AFB7913700C37BD465DF8047B7047DC81FF1FE281FF1FDE
:402D0000E881FF1F6D81FF1F0082FF1F6B81FF1FE481FF1F80B582B000AF164B1B889BB2002B02D100F030F81EE0134B02221A70124B00221A7000F06FF9114B1B78DBB26F
:402D40001B029AB20F4B1B78DBB29BB213439BB2FB80084B1B889BB2FA889A4202D2054AFB881380FFF76CFF012318460837BD4680BD00BFE881FF1F6B81FF1F6D81FF1F6D
:402D8000076000400660004080B400AF0A4B02221A700A4B80221A70094B0F221A70094B00221A70084B00221A7001231846BD465DF8047B704700BF6B81FF1F6D81FF1F6C
:402DC0000082FF1FDC81FF1FE481FF1F80B500AFFFF736FF80BD00BF80B500AF0A4B1B78DBB29AB2094B1B889BB213449AB2074B1A80074B00221A70012000F0EDF8054B6E
:402E000003221A7080BD00BFDC81FF1FE281FF1F6B81FF1F0082FF1F80B582B000AF124B04221A70114B80221A7000F0F5F8104B1B78DBB21B029AB20E4B1B78DBB29BB20F
:402E400013439BB2FB800C4B1B889BB2FA889A4202D2094AFB881380084B0B221A70012318460837BD4680BD6B81FF1F6D81FF1F0760004006600040E881FF1F0082FF1FBD
:402E800080B483B000AF0023BB71254B1B78DBB203F00F03DBB2023BFB71FB799AB2214B1B889BB213449AB21E4B1A801BE01E4B5A68BB7903F1804303F5C0431B78DBB2F4
:402EC0001370194B5B680133174A5360BB790133BB71FB79013BFB71134B1B889BB2013B9AB2114B1A80104B1B889BB2002B02D0FB79002BDBD10D4AFB7913700C4B1B7899
:402F0000DBB283F07F03DB43DAB2094B1A70094B0B221A700C37BD465DF8047B704700BF29600040E281FF1FE881FF1FE481FF1F6D81FF1F0082FF1F80B500AF044B002297
:402F40001A70012000F048F8024B03221A7080BD6B81FF1F0082FF1F80B400AF084B06221A70084B06221A70074B80221A70074B00221A7001231846BD465DF8047B70471A
:402F80006B81FF1F0082FF1F6D81FF1FE481FF1F80B500AF0C4B1B78DBB2002B0AD00B4A094B1B78DBB263F07F03DBB21370064B00221A70064B00221A70012000F00CF8BB
:402FC000044B03221A7080BDF481FF1F086000406B81FF1F0082FF1F80B483B000AF0346FB710B4B9B68002B0CD0094B9B68FA791A70074B9B68074A128892B25A80044B85
:4030000000229A600C37BD465DF8047B704700BFE881FF1FE281FF1F80B400AF094B00221A80094B9B68002B07D0074B9B6800221A70054B9B6800225A80BD465DF8047B69
:40304000704700BFE281FF1FE881FF1F80B400AF104B1B78104B1B7BDBB203F00303012B08D00D4BDB7BDBB283F07F03DB43DAB2094BDA73084B01225A73084A074B1B7891
:40308000DBB223F00103DBB21370BD465DF8047B704700BF0E6000407081FF1F0B60004080B400AF104B1B78104B1B7EDBB203F00303012B08D00D4BDB7EDBB283F07F0325
:4030C000DB43DAB2094BDA76084B01225A76084A074B1B78DBB223F00203DBB21370BD465DF8047B704700BF1E6000407081FF1F0B60004080B400AFBD465DF8047B70471A
:4031000080B500AFFFF7DAFA80BD00BF80B582B000AF0023FB716F4B1B78BB716E4B1B78DBB2DBB25BB2002B6DDA6C4B1B78DBB2013B052B65D801A252F823F09B31000096
:40314000B5310000E1310000033200000332000055310000624B1B78DBB2212B0BD100F0CBF8604B1B889BB2002B15D0FFF7D2FD0346FB7146E05A4B1B78DBB2222B0BD186
:4031800000F0F8F8574B1B889BB2002B04D0FFF7C1FD0346FB7135E034E000F033F9514B1B889BB2002B04D0FFF7B4FD0346FB7128E027E0BB79002B11D14B4B1B78DBB203
:4031C000002B0CD1474B01221A80BB79474A1344444A5360FFF79EFD0346FB7112E011E0BB79002B0CD13F4B01221A80BB79404A13443C4A5360FFF78DFD0346FB7101E00B
:4032000000E000BF61E0344B1B78DBB2DBB25BB2002B5ADB314B1B78DBB20A2B11D00B2B3FD0092B00D050E000F0ECF82D4B1B889BB2002B04D0FFF7EFFD0346FB7144E0F4
:4032400043E0BB79002B2BD1274B1B78DBB2002B26D1BB79224A1278D1B2244AD154BB79224AD35CDAB2BB792249CB5CDBB29A4204D2BB791F4A0021D1540CE0BB791D4A12
:40328000D35CDBB2012B06D9BB79BA7917498A5CD1B2184AD154FFF75FFE0346FB7114E013E0BB79002B0FD10F4B1B78DBB2012B0AD8BB790C4A1278D1B20D4AD154FFF7D1
:4032C0004BFE0346FB71FFE700BFFB7918460837BD4680BD04600040006000400160004003600040E881FF1F026000400C82FF1F0482FF1F0882FF1F80B584B000AF194BB5
:403300001B78DBB2013BDBB2184600F0B7FEF860154B1B78FB72FB7A0233DB00FA681344FB60FB685B68FB60FB7A104AD35CDBB2DB00FA681344FB60FB685B68FB60FB6871
:403340002033FB60FB685B687B607B681B78DBB29AB2074B1A80064A7B6853601037BD4680BD00BF6881FF1F04600040E081FF1FE881FF1F80B584B000AF1E4B1B78DBB2E5
:40338000013BDBB2184600F079FEF8601A4B1B78FB72FB7A0233DB00FA681344FB60FB685B68FB60FB7A154AD35CDBB2DB00FA681344FB60FB685B68FB60FB681833FB609F
:4033C000FB685B687B607B6801331B78DBB21B029AB27B681B78DBB29BB213439BB29AB2074B1A807B680233054A53601037BD4680BD00BF6881FF1F04600040E081FF1F77
:40340000E881FF1F80B584B000AF2D4B00221A802C4B1B78DBB2013BDBB2184600F02EFEF860294B1B78FB72284B1B78BB72BB7A0233DB00FA681344FB60FB685B68FB6006
:40344000BB7A002B38D1BB7A214AD35CDBB2DB00FA681344FB60FB685B68FB60FB7A002B2AD0FB7A032B27D8FB7A03F10053013BDB00FA681344FB60164B1B78FB72FB6830
:403480001B78FA7A9A4217D8FB685B687B60FA7A13465B0013449B001A467B6813447B607B685B68064A53607B681A88044B1A807B689B68024A93601037BD4680BD00BF28
:4034C000E881FF1F6881FF1F0360004004600040E081FF1F0260004080B586B000AF0023FB7500233B619C4B00221A809B4B1B78DBB2DBB25BB2002B80F20381984B1B7890
:40350000DBB20A2B00F2FB8001A252F823F000BF53360000FF360000FF360000FF360000FF360000FF3600003D350000FF360000C9360000FF360000DF360000894B1B78B4
:40354000DBB2012B0ED100F0C3FDB860BB685B68814A5360804B12221A80FFF7DBFB0346FB7575E07F4B1B78DBB2022B24D17E4B1B78DBB2184600F081FDB860BB68002BED
:4035800066D0BB685B68744A5360734B5B6803331B78DBB21B029AB26F4B5B6802331B78DBB29BB213439BB29AB26B4B1A80FFF7B1FB0346FB75A3E06A4B1B78DBB2032BFF
:4035C00041D10023FB73694B3B6109E03B691B78FB71FB793A6913443B61FB7B0133FB73614B1B78DBB2FA7B9A4204D23B691B78DBB2002BEAD15C4B1B78DBB2EE2B01D1DB
:403600005B4B3B61584B1B78DBB2002B08D0564B1B78DAB2574B1B7C9A4201D1564B3B613B691B78DBB2002B12D03B691B78DBB29AB2494B1A80484A3B695360FFF76AFB4B
:403640000346FB755CE000F0F5FE0346FB7557E056E0424B1B78DBB203F00303002B1FD0022B00D02FE03C4B02221A80434B1B78DBB203F07F02424913465B0013449B00E8
:403680000B449B78DAB23F4B1A703E4B00225A70314B3C4A5A60FFF73DFB0346FB7512E02D4B02221A80384B1B78DAB2354B1A70344B00225A70284B324A5A60FFF72AFBED
:4036C0000346FB7500BF1BE0234B01221A80224B2E4A5A60FFF71EFB0346FB7510E01E4B01221A80254B1B78DBB21A46284B1344194A5360FFF70EFB0346FB7500E000BF88
:4037000021E1174B1B78DBB2013B0A2B00F21A8101A252F823F000BF2938000045390000B738000045390000453700004539000045390000453900009937000045390000B8
:40374000EF370000084B1B78DAB2124B1A70FFF703FC0346FB75F6E0E881FF1F006000400160004003600040026000402046000080470000E0450000B84600000460004045
:403780007081FF1F6081FF1F6981FF1F6881FF1FE081FF1FF481FF1F6D4B1B78BB71BB79002B06D0BB79013BDBB2184600F066FCB860BB79002B02D0BB68002B02D1BB79E3
:4037C000002B13D1634B1B78DBB2BA799A4208D0604ABB791370604B01221A70012000F08BF9FFF7B9FB0346FB75ACE0ABE000F0B9FD0346002B16D0584B1B787B71584A79
:403800007B791370544B01221A7000F0F9FA7B797A7954498A5CD1B2534AD154FFF79CFB0346FB758FE08EE0504B1B78DBB203F00303012B22D0012B0DD3022B00D039E01C
:40384000434B1B78DBB2002B04D100F0E9FC0346FB752FE02EE03E4B1B78DBB2012B0CD1434B1B78DBB223F00203DAB2404B1A70FFF772FB0346FB751CE01BE0374B1B78AE
:40388000DBB2002B15D1324B1B78DBB2DB43DBB2324A1278D2B211461046364A125CD2B21340DAB2334B5A54FFF756FB0346FB75FFE700BF47E02D4B1B78DBB203F0030311
:4038C000012B22D0012B0DD3022B00D039E0204B1B78DBB2002B04D100F032FC0346FB752FE02EE01A4B1B78DBB2012B0CD1204B1B78DBB243F00203DAB21D4B1A70FFF744
:403900002BFB0346FB751CE01BE0144B1B78DBB2002B15D10E4B1B78DBB2DB43DBB20F4A1278D2B211461046124A125CD2B21340DAB2104B5A54FFF70FFB0346FB75FFE714
:4039400000BF00E000BFFB7D18461837BD4680BD026000406881FF1F6A81FF1F04600040F981FF1FE081FF1F6C81FF1F006000406981FF1FF881FF1F80B483B000AF012393
:40398000FB710023BB7197E0BB7903F1804303F5C1430C221A70FA794E4913465B0013449B000B445B79DBB2002B18D0FA79494913465B0013449B000B441B79DBB2DBB21B
:4039C0005BB2002B05DABA79434B13440C221A700AE0BA79404B134408221A7004E0BA793D4B134480221A70BA793C4B13441846FA79384913465B0013449B000B44083378
:403A00001B889BB21B0A9BB2DBB20370BA79344B13441846FA792F4913465B0013449B000B4408331B889BB2DBB20370BA792D4B13441846FA79274913465B0013449B00C9
:403A40000B44DB889BB2DBB20370BA79264B13441846FA791F4913465B0013449B000B44DB889BB21B0A9BB2DBB20370BA791F4B13441846FA79174913465B0013449B0031
:403A80000B44DB889BB2DBB20370BA79184B13441846FA790F4913465B0013449B000B44DB889BB21B0A9BB2DBB20370FB790133FB71BB791033BB71BB795BB2002BBFF602
:403AC00063AF0C4BFF221A700C37BD465DF8047B704700BF7081FF1F0E6000400C6000400D600040866000408760004084600040856000400A60004080B588B000AF034667
:403B0000FB7100237B830023FB7743E0FA7FA44913465B0013449B000B4400221A70FA7F9F4913465B0013449B000B4400229A70FA7F9B4913465B0013449B000B44002243
:403B40005A70FA7F964913465B0013449B000B440022DA70FA7F924913465B0013449B000B4400225A71FA7F8D4913465B0013449B000B44083300221A80FA7F88491346AE
:403B80005B0013449B000B44083300229A70FB7F0133FB77FB7F082BB8D9FB79002B10D000237B770AE07B7F7E4A0021D1547B7F7D4A0021D1547B7F01337B777B7F002BD2
:403BC000F1D07A4B1B78DBB2002B00F01381774B1B78DBB2013BDBB2184600F04FFA38613B695B68FB60FB6807331B7803F04003002B08D06E4B1B78DBB243F00103DAB2CE
:403C00006B4B1A7007E06A4B1B78DBB223F00103DAB2674B1A703B6908333B613B691B78FB7701237B7790E03B695B687B610023BB7782E07A7F7B699B7803F07F039A42C4
:403C400075D17A7F564913465B0013449B000B4408331B889AB27B699B889A420BD27A7F7B6998884E4913465B0013449B000B44083302461A807B691B781A46494B9B5C7F
:403C8000DAB27B695B789A4251D17B69DB7803F00303FB727B699B78DBB25BB2002B18DA7A7F3F4913465B0013449B000B4401225A707A7FFB7A012B01D1072000E00D2075
:403CC000374913465B0013449B000B4402465A7117E07A7F324913465B0013449B000B4400225A707A7FFB7A012B01D1052000E009202B4913465B0013449B000B440246A5
:403D00005A717A7F7B699878254913465B0013449B000B4402461A717A7F7B69D878204913465B0013449B000B4402461A707B6908337B61BB7F0133BB77BA7FFB7F9A420E
:403D4000FFF478AF7B7F01337B777B7F082B7FF66BAF3B695B687B6100237B7714E07B699B7803F07F027B6918780D4913465B0013449B000B44083302469A707B6908332B
:403D80007B617B7F01337B777A7FFB7F9A42E6D300F0B0F90246074B1A600123FB7724E07081FF1FE081FF1F6C81FF1F6881FF1F6981FF1FFC81FF1FFA7F104913465B00EF
:403DC00013449B000B447A8BDA80FA7F0B4913465B0013449B000B4408331B889AB27B8B13447B83FB7F0133FB77FB7F082BE3D9FFF7C2FD2037BD4680BD00BF7081FF1F39
:403E000080B584B000AF914B1B78DBB2002B00F01A818E4B1B78DBB2013BDBB2184600F02DF978607B6808337B607B681B78FB707B685B68BB600023FB73FFE0BB681B78E9
:403E40001A46834B9B5CDAB2BB681B781946814B5B5CDBB29A4200F0EB80BB681B781A467B4B9B5CDAB2BB685B789A4240F0E080BB681A78784B1B78DBB29A4240F0D88078
:403E8000BB689B7803F07F03BB70BB78013BDBB21B017B70BB68DB7803F003033B70BB689B78DBB25BB2002B18DABA786B4913465B0013449B000B4401225A70BA783B7875
:403EC000012B01D1072000E00D20644913465B0013449B000B4402465A7117E0BA785F4913465B0013449B000B4400225A70BA783B78012B01D1052000E00920574913461F
:403F00005B0013449B000B4402465A717A78544B134401221A70BA78BB6898884F4913465B0013449B000B44083302461A80BA78BB689878494913465B0013449B000B4432
:403F400002461A71BA78BB68D878444913465B0013449B000B4402461A70BA783F4913465B0013449B000B440022DA707A783D4B13441846BA78394913465B0013449B00D1
:403F80000B4408331B889BB21B0A9BB2DBB203707A78354B13441846BA78304913465B0013449B000B4408331B889BB2DBB203707A782E4B13441846BA78284913465B00AC
:403FC00013449B000B44DB889BB2DBB203707A78274B13441846BA78204913465B0013449B000B44DB889BB21B0A9BB2DBB203707A78204B13441846BA78184913465B00AC
:4040000013449B000B44DB889BB2DBB203707A78194B13441846BA78104913465B0013449B000B44DB889BB21B0A9BB2DBB20370BB680833BB60FB7B0133FB73FA7BFB7869
:404040009A42FFF4FBAE1037BD4680BD6881FF1FE081FF1F6C81FF1F046000407081FF1F0E6000400C6000400D6000408660004087600040846000408560004080B485B0F7
:4040800000AF0346FB71104B1B78DBB20F4ADB0013445B68FB60FB680833FB60FB681B78FA799A4202D30023FB6005E0FB79DB00FA6813445B68FB60FB6818461437BD46CD
:4040C0005DF8047B704700BFE181FF1F7847000080B400AF054B1B78DBB2054ADB0013445B681846BD465DF8047B7047E181FF1F7847000080B584B000AF104B1B78DBB2E2
:40410000013BDBB21846FFF7B9FFB860BB68002B0DD0BB685B681B79FB71FB790233DB00BA681344BB60BB685B68FB6001E00023FB60FB6818461037BD4680BD6881FF1F7A
:4041400080B582B000AF0023FB71324B1B78DBB203F07F03BB71BB79013BDBB21B017B71BB79002B51D0BB79082B4ED8BA79B97929480B465B000B449B0003449B78DBB2F7
:4041800043F00103D8B2244913465B0013449B000B4402469A70BA791F4913465B0013449B000B440022DA70BA79B9791A480B465B000B449B0003445B78DBB243F0020352
:4041C000D8B2154913465B0013449B000B4402465A70BA79104913465B0013449B000B441B79DBB2DBB25BB2002B05DA7A790B4B13448D221A7004E07A79084B1344892285
:404200001A70FEF7A9FE0346FB71FB7918460837BD4680BD046000407081FF1F0E60004080B582B000AF0023FB714A4B1B78DBB203F07F03BB71BB79013BDBB21B017B71F1
:40424000BB79002B00F08180BB79082B7DD8BA79B97941480B465B000B449B0003449B78DBB223F00103D8B23B4913465B0013449B000B4402469A70BA79374913465B00F4
:4042800013449B000B440022DA707A79334B134419467A79314B13441B78DBB203F07F03DBB20B70BA79B9792B480B465B000B449B0003445B78DBB223F00203D8B22649A1
:4042C00013465B0013449B000B4402465A70BA79214913465B0013449B000B441B79DBB2DBB25BB2002B16DABA791B4913465B0013449B000B445B78DBB2012B05D17A796E
:40430000174B13440C221A701BE07A79144B13440D221A7015E0BA790F4913465B0013449B000B445B78DBB2012B05D17A790C4B134408221A7004E07A79094B13440922D6
:404340001A70FEF709FE0346FB71FB7918460837BD4680BD046000407081FF1F0C6000400E60004080B584B000AF0123FB73164B1B78BB73154B1B78DBB2013BDBB2184631
:40438000FFF77CFEB860BB685B681B79FB71BA7BFB799A4202D2BB7B002B02D00023FB730CE0BB7BBA7B0A498A5CD1B2094AD154BB7B094A1278D1B2054AD154FB7B184609
:4043C0001037BD4680BD00BF046000406881FF1FE081FF1F6C81FF1F0260004080B582B000AF0023FB710F4B1B78DBB2DBB25BB2002B12DA0C4B1B78DBB2012B00D00CE071
:404400000A4B0B4A5A600A4B1B789AB2074B1A80FEF780FC0346FB7100BFFB7918460837BD4680BD0060004001600040E881FF1F9447000080B582B000AF0023FB71002357
:40444000BB711B4B1B78DBB203F00303012B02D0022B04D012E0174B1B78BB710EE0154B1B78DBB203F07F02134913465B0013449B000B4408339B78BB7100BF0F4B1A6837
:40448000BB7913441B78022B09D0032B02D0012B07D007E0FEF73AFE0346FB7102E000BF00E000BFFB7918460837BD4680BD00BF00600040046000407081FF1FFC81FF1FCE
:4044C0000E4B70B51E460E4C0025E41AA410A54204D056F8253098470135F8E700F06EF9084B094C1E46E41AA4100025A54204D056F8253098470135F8E770BDC84700008F
:40450000C8470000C8470000D047000010B5431E0A44914204D011F8014B03F8014FF8E710BD03460244934202D003F8011BFAE7704700007400000000490000000000003D
:404540007C010000740100006C010000640100005C0100005C0100005C0100005C0100004881FF1F4881FF1F4881FF1F4881FF1F4881FF1F4881FF1F4881FF1F4881FF1FCB
:404580004881FF1F4881FF1F4881FF1F4881FF1F4881FF1F4881FF1F4881FF1F4881FF1F140700000C070000040700008406000004060000840500000405000084040000DC
:4045C0000404000084030000040300008402000004020000840100006910162E002801011201000200000008B4041DB701300103800100000902290001010080000904000B
:404600000002030000000921110100012224000705010340000107058203400001000000040309042C0343007900700072006500730073002000530065006D006900630092
:404640006F006E0064007500630074006F0072002203500053006F0043003300200042006F006F0074006C006F006100640065007200440343005900340035003000300048
:404680002000550053004200200050004400200041006E0061006C0079007A0065007200200042006F006F0074006C006F00610064006500720000000A033000300030000E
:4046C00031000000240005010900A1000900A1000900150025FF7508954091020900150025FF750895408102C0C00000410000005C82FF1F1082FF1F410000001882FF1F67
:404700001482FF1F00000000EC46000000000000F8460000000000000000000001000000C446000001000000064600000100000004470000000001034000030000008203E5
:40474000400003000300000001000000F44500000200000034470000010000002C470000000000004447000001000000E045000001000000484700000100000068470000D7
:4047800012034D005300460054003100300030000100000028000000000104000100000000000000000143595553420000003030303031000000000000000000F8B500BF06
:4047C000F8BC08BC9E4670474D07000031080000F8B500BFF8BC08BC9E46704729070000F04700000881FF1F2000000078010000000000003445000038450000006CDC02B3
:4048000080BB0000300000000000C05D00000000000000000000000000000000000000000000000000000000000000000000000000000000000000000000000000000000F0
:404840000000000000000000000000000000000000000000000000000000000000000000000000000000000000000000000000000000000000000000000000000000000038
:4048800000000000000000000000000000000000000000000000000000000000000000000000000000000000000000000000000000000000000000000000000000000000F8
:4048C00000000000000000000000000000000000000000000000000000000000000000000000000000000000000000000000000000000000000000000000000000000000B8
:404900000080002011490000857100008571000008B502F03FFC00BF10B5054C237833B9044B13B10448AFF300800123237010BDA881FF1F000000002C9A0000084B10B521
:404940001BB108490848AFF300800848036803B910BD074B002BFBD0BDE81040184700BF00000000AC81FF1F2C9A0000C880FF1F0000000008B500F00DF862B603F046F897
:404980000028FBD0032003F0F3F801F09FFB01F045FEFAE708B500F00DF801F09BFA01F0F5FD02F0F3F80A2004F08AFFBDE8084001F088BB08B504F06BFA04F0BBFA04F0F0
:4049C00013FA04F0C5F940F2EE2004F0ADFA40F2EE2004F0FBFABDE8084040F2EE2004F051BA00BF08B540F2E73004F09DFAFA2004F0ECFABDE8084040F2E73004F042BA5E
:404A000008B540F2E73004F08FFA40F2E73004F0DDFABDE80840FA2004F034BA08B5FA2004F082FAFA2004F0D1FABDE8084040F2E73004F027BA00BF38B5364B9A79012A60
:404A400016D00022DC79334D012C27D0197A314C012937D0617AB9B12F494FF4237202FB0010427C997BC2F342038B420ED038BD29494FF4237404FB0011897C1C7B01F0FD
:404A80000F01A142DED038BD002AF0D0012002F04FFEBDE83840002002F04ABEEA7A1E49FAB1012A26D04FF4237202FB00114A7C1206DCD50A7CA97A02F01F028A42D6D1A4
:404AC0002246C3E714494FF4237202FB0012527C657BC2F30212AA42C9D1627A002AD5D0BBE74FF4237202FB00114A7C12F0700FE0D0BCE74FF4237404FB00114C7C14F0E0
:404B0000700FB4D0097CAC7A01F01F01A142AED19CE700BF1882FF1F7082FF1FF8B502F03FF8194F1E24C7F87C0202F07DFD0646002502F079FD864202D00135042D06D869
:404B4000013C0646F5D1BDE8F84002F0DFBC0F4B1A79012A11D11A681B699A420DD002F0CFFC012387F88432002002F077FC02F01DFCBDE8F84002F0C9BC012002F0F0FDC9
:404B8000002002F0EDFDEAE77082FF1F1882FF1FF8B502F005F8194F1E24C7F8080502F0BFFD0646002502F0BBFD864202D00135042D06D8013C0646F5D1BDE8F84002F088
:404BC000A5BC0F4B1A79012A11D11A681B699A420DD002F08FFB012387F81035002004F079FA04F01FFABDE8F84002F08FBC012002F0B6FD002002F0B3FDEAE77082FF1F20
:404C00001882FF1F08B5054B93F884320BB102F071FCBDE8084002F079BC00BF7082FF1F08B5054B93F810350BB102F05DFBBDE8084002F065BB00BF7082FF1F2DE9F04772
:404C4000304F97F89D321906C3F3021A03D5D7F8A4321A044BD5BAF1000F03D00AF1FF3A5FFA8AFA0025A9462B46274EDFF8A080264C581C04EB83012BBBD7F89C32D8F870
:404C800000104FEA134E69F3091ED7F80825D7F898022361A4F812E0D7F80C352160E3603368A260636160600123EAB292451BD11649002001F0B2FED8F800300133C8F8C4
:404CC0000030BDE8F0873268C3B20B2B4A61ECD10E49002001F0A2FEEBB209F101099A455FFA89F9E8D0002301350436C1E7C3F3080A0AF1050ACAF3870A0AF1FF3A5FFAB8
:404D00008AFAAFE77082FF1F1485FF1F3082FF1F1882FF1F2DE9F0472E4F7B7C1906C3F3021A02D5BB691A0449D5BAF1000F03D00AF1FF3A5FFA8AFA0025A9462B46264E8A
:404D4000DFF89C80254C581C04EB83011BBB3B69D8F800104FEA134E69F3091ED7F87C22F8682361A4F812E0D7F880322160E3603368A260636160600123EAB292451BD1A9
:404D80001649002001F04AFED8F800300133C8F80030BDE8F0873268C3B20B2B4A61ECD10E49002001F03AFEEBB209F101099A455FFA89F9E8D0002301350436C3E7C3F3A8
:404DC000080A0AF1050ACAF3870A0AF1FF3A5FFA8AFAB1E77082FF1F8882FF1F3082FF1F1882FF1F10B5204C94F89F3243F0100384F89F3201F0D4FE1C4BC4F80C055A79F5
:404E0000012A2BD0012002F09FFC002002F09CFC0120FFF711FEFFF711FF002004F0FCF802F06EFA02F060FA02F040FA02F02EFA04F0D8FA04F0C6FA02F090FA02F07EFA74
:404E4000002384F81035012084F81135A4F8FC3484F81235BDE8104004F0DEB81A685B699A42D5D1CEE700BF7082FF1F1882FF1F10B525482549264A264B274C007809786C
:404E800012781B7894F885321BB1BDE8104002F013BB01F085FE214BC4F880025A79012A2DD0012002F050FC002002F04DFC0020FFF7C2FDFFF72EFF002002F0E5FB02F062
:404EC00025FB02F017FB02F0F7FA02F0E5FA04F0B9FA04F0A7FA02F0D1FB02F0C3FB0023012084F8843284F88532A4F8703284F8863202F0C9FBBDE8104002F0DDBA1A685F
:404F00005B699A42D3D1CCE75F6400405E640040586400405B6400407082FF1F1882FF1F10B525482549264A264B274C0078097812781B7894F811351BB1BDE8104002F023
:404F4000B5B901F02DFE214BC4F80C055A79012A2DD0012002F0F8FB002002F0F5FB0120FFF76AFDFFF76AFE002004F055F802F0C7F902F0B9F902F099F902F087F904F0EE
:404F800031FA04F01FFA02F0E9F902F0D7F90023012084F8103584F81135A4F8FC3484F8123504F039F8BDE8104002F07FB91A685B699A42D3D1CCE7536400405164004024
:404FC00050640040546400407082FF1F1882FF1F38B5424C424DE37C43F01003E37401F0DFFD6B79C4F88002012B3AD0012002F0ABFB002002F0A8FBAB79394A012B38D089
:405000000023EA793649012A4FD0297A344A012936D0527A002A3BD1002B3FD1FFF77AFE002002F031FB02F071FA02F063FA02F043FA02F031FA04F005FA04F0F3F902F02A
:405040001DFB02F00FFB002384F88432012084F88532A4F8703284F88632BDE8384002F013BB2A686B699A42C0D0AB791C4A012BC6D1A17C107B01F00F028242CED1C0E751
:40508000637C517BC3F302138B42C7D1537A2BB1637CAA7BC3F342039342BFD1012002F047FB002002F044FBB8E7CB7A63B1012B637C0ED01B06B1D5237CAA7A03F01F0302
:4050C0009342ABD10123A0E7637C13F0700FF3D0A4E713F0700FEFD1A0E700BF7082FF1F1882FF1F2DE9F843B54C002384F8843294F88632062B64D8DFE813F0FF00F201A1
:4051000078010700BB016500A7004FF000084746AC49AD4BAD4A0978AD481B78127843EA0121037842EA012143EA0121A948C1F3042201F01F03855CC35C94F8872243EA35
:405140000513C1F30445465DC1F304611343455C43EA062343EA05352B0CDFF8649284F88732ADB24FEAC80194F88A3225FA01F1C9B2002B40F01982D9F87432063349F855
:40518000231094F88A3200200133DBB284F88A3294F88A328A4E042B08F1010800F01D82B4F87032013B9BB2A4F8703201F0D4FDB4F870329BB2002B00F05582B8F1020F5D
:4051C000D0D1BDE8F8837F497F4B804A08781B78127843EA002311F8040C94F8881242EA032340EA0323764A002900F00D821E0C784F06F01F01785C03F01F01C3F3042391
:4052000092F887E2FD5C795C03024EEA010143EA0515D2F878320D43F6B2002143EA056582F88712C2F8785282F88962002001F0A7FDA84203D0E37C43F04003E37494F87D
:4052400088325F4A002B00F0FF8194F888325C4A002B00F0918192F8891292F887324B40584D594859495A4A0D2B2D7800780978127803D0E37C43F02003E374E37C504A60
:4052800013F0600F04BF43F08003D37401F088FC514BC4F880025A79012A40F07F811A685B699A4200F07A810020FFF7C5FBFFF731FD002002F0E8F902F028F902F01AF92D
:4052C00002F0FAF802F0E8F804F0BCF804F0AAF802F0D4F902F0C6F9002384F88432012084F88532A4F8703284F8863202F0CCF9012384F88532BDE8F88300263149324BE4
:4053000084F88562314A84F887620D781B78127843EA052511F8043C42EA05250220266143EA052503F06EFF2C4BE0609D42244F00F04A812A4B9D4200F0A981294B9D42AD
:4053400000F0A78103F5893303F580739D4200F0A28103F12E6303F550239D4200F03381214B9D4200F0A68103F16D4303F588539D4200F0F081BB7C072262F303033046C7
:40538000BB7402F081F902F0C1F802F0B3F802F093F802F081F804F055F804F043F802F06DF902F05FF987F88462012087F88562A7F8706287F88662BDE8F84302F064B95D
:4053C0007082FF1F5F6400405E640040586400405B640040309A00001882FF1F18181811181806061806180607070719AB49AC4BAC4A0978AC481B78127843EA01210378DF
:4054000042EA0121A94843EA0121C1F3042201F01F03855CC35C94F88722C1F30446865D43EA0513C1F30461455C134343EA062343EA05352B0C84F88732D4F87432ADB28C
:40544000063344F823502946002001F069FC0223EA0B84F88A32964B00F0C780B3F87022023A92B2A3F87022032384F88632BDE8F8838A498A4B8B4A08781B78127843EA4A
:40548000002011F8043C42EA002043EA0020874D00F01F03C0F30422EB5CAA5C94F88712C0F3044643EA0212C0F30460AB5D0A43295C42EA032343EA01331A0C84F887228C
:4054C00094F888229BB27A491AB191F8892242EA03230522C4F8783284F88622BDE8F88300256E496E4BC4F874526E4A84F88A5284F8885208781B78127843EA002011F8D4
:40550000043C42EA0020694E43EA002000F01F03C0F30422F35CB25C94F88712C0F3044743EA0212C0F30460F35D0A43315C42EA032343EA013322699EB232431B0C84F848
:4055400087322261284601F0E3FB3146284601F0E7FB627C5649C2F302139B00A4F8703213067BD4B1F870329BB2002B71D1042381F88632BDE8F8834849494B49480D78BA
:405580001B780439007843EA0523097840EA032392F8872241EA0323534061E6012002F0D3F8002002F0D0F87EE699F88A32D9F87402DB00063059F8202001FA03F3134386
:4055C00049F82030DDE50426A37C012266F30303A37484F88622BDE8F883D9F874320133C9F8743289F88A72DAE5C5F30805A3F87052B3F8702292B2002A7FF435AF04229A
:4056000083F88622BDE8F883284EC3F3042003F01F01375C715CC3F3044592F8870241EA0711C3F30463775D0143F55C41EA0721D2F8783241EA0535290C43EA054582F837
:405640008712C2F87852F1E5062382F88632BDE8F883032381F88632BDE8F883022381F88632BDE8F88396F88A32012B08D096F88A32032B04D0042384F88632BDE8F883BA
:405680002D0A012384F8883284F88952F3E701269AE7022698E7032696E700BF5F6400405E640040586400405B640040309A00007082FF1F0521A27CE37C61F3030243F06B
:4056C0008003E374A27401F06BFA3E4DC4F880026B79012B38D12A686B699A4234D0AB79384A012B39D00023EA793649012A50D0297A344A012937D0527A002A3CD1002B91
:4057000040D1FFF707FB002001F0BEFF01F0FEFE01F0F0FE01F0D0FE01F0BEFE03F092FE03F080FE01F0AAFF01F09CFF002384F88432012084F88532A4F8703284F8863225
:40574000BDE8F84301F0A0BF012001F0FDFF002001F0FAFFC3E70621ADE7A17C107B01F00F028242CDD1BFE7637C517BC3F302138B42C6D1537A2BB1637CAA7BC3F3420348
:405780009342BED1012001F0D3FF002001F0D0FFB7E7CB7A5BB9637C13F0700FB1D1237CAA7A03F01F039342ABD10123A0E7012B637C02D01A06F2D4A3E713F0700FEED185
:4057C0009FE700BF1882FF1F2DE9F843B94C002384F8103594F81235062B63D8DFE813F00301F90180010700C3016400A7004FF000084746B049B14BB14A0978B1481B7843
:40580000127843EA0121037842EA012143EA0121AD48C1F3042201F01F03855CC35C94F8132543EA0513C1F30445465DC1F304611343455C43EA062343EA05352B0CDFF811
:40584000749284F81335ADB24FEAC80194F8163525FA01F1C9B2002B40F02282D9F80035A93349F8231094F8163501200344DBB284F8163594F816358E4E042B804400F01C
:405880002982B4F8FC34013B9BB2A4F8FC3401F063FAB4F8FC349BB2002B00F06182B8F1020FD1D1BDE8F8838349844B844A08781B78127843EA0023487894F8141542EA24
:4058C000032340EA03237B4A002900F01A821E0C7D4F06F01F01785C03F01F01C3F3042392F813E5FD5C795C03024EEA010143EA0515D2F804350D43F6B2002143EA0565FF
:4059000082F81315C2F8045582F81565012001F037FAA84205D094F89F3243F0400384F89F3294F81435634A002B00F00A8294F81435604A002B00F09A8192F8151592F880
:4059400013354B405C4D5D485D495E4A0D2B2D7800780978127805D094F89F3243F0200384F89F3294F89F32524A13F0600F04BF43F0800382F89F3201F012F9534BC4F8FE
:405980000C055A79012A40F084811A685B699A4200F07F810120FFF74FF8FFF74FF9002003F03AFB01F0ACFC01F09EFC01F07EFC01F06CFC03F016FD03F004FD01F0CEFC10
:4059C00001F0BCFC002384F81035012084F81135A4F8FC3484F8123503F01EFB012384F81135BDE8F88300263349344B84F81165334A84F813650D781B78127843EA052519
:405A00004B7842EA05250220C4F89C6243EA052503F0F8FB2E4BC4F898029D42254F00F04E812C4B9D4200F0AF812B4B9D4200F0AD8103F5893303F580739D4200F0A881D3
:405A400003F12E6303F550239D4200F03781234B9D4200F0AB8103F16D4303F588539D4200F0F98197F89E32072262F30303304687F89E3203F0D0FA01F042FC01F034FCD1
:405A800001F014FC01F002FC03F0ACFC03F09AFC01F064FC01F052FC87F81065012087F81165A7F8FC6487F81265BDE8F84303F0B3BA00BF7082FF1F536400405164004048
:405AC0005064004054640040309A00001882FF1F18181811181806061806180607070719AC49AD4BAD4A0978AD481B78127843EA0121037842EA0121AA4843EA0121C1F3B5
:405B0000042201F01F03855CC35C94F81325C1F30446865D43EA0513C1F30461455C134343EA062343EA05352B0C84F81335D4F80035ADB2A93344F823502946012001F00E
:405B4000EFF80223EA0B84F81635974B00F0CA80B3F8FC24023A92B2A3F8FC24032384F81235BDE8F8838B498B4B8C4A08781B78127843EA00204B7842EA002043EA00206C
:405B8000884D00F01F03C0F30422EB5CAA5C94F81315C0F3044643EA0212C0F30460AB5D0A43295C42EA032343EA01331A0C84F8132594F814259BB27B491AB191F8152504
:405BC00042EA03230522C4F8043584F81225BDE8F88300236F49704DC4F800356F4A84F8163584F8143508782B78127843EA00204B7842EA00206B4D43EA002000F01F0376
:405C0000C0F30422EB5CAA5C94F81315C0F3044643EA0212C0F30460AB5D0A43295C42EA032343EA0133D4F89C229DB22A431B0C84F81335C4F89C22012001F069F829461B
:405C4000012001F06DF894F89D225749C2F302139B00A4F8FC3413067DD4B1F8FC349BB2002B73D1042381F81235BDE8F8834949494B4A480D781B780131007843EA0523BC
:405C8000097840EA032392F8132541EA0323534058E6012001F058FD002001F055FD79E699F81635D9F80005DB00A93059F8202001FA03F3134349F82030D4E5042694F8C8
:405CC0009E32012266F3030384F89E3284F81225BDE8F883D9F800350344C9F8003589F81675CEE5C5F30805A3F8FC54B3F8FC2492B2002A7FF432AF042283F81225BDE877
:405D0000F883284EC3F3042003F01F01375C715CC3F3044592F8130541EA0711C3F30463775D0143F55C41EA0721D2F8043541EA0535290C43EA054582F81315C2F804559F
:405D4000E4E5062382F81235BDE8F883032381F81235BDE8F883022381F81235BDE8F88396F81635012B08D096F81635032B04D0042384F81235BDE8F8832D0A012384F8AC
:405D8000143584F81555F3E7012698E7022696E7032694E753640040516400405064004054640040309A00007082FF1F052194F89E2294F89F3261F3030243F0800384F8DF
:405DC0009F3284F89E2200F0EBFE414DC4F80C056B79012B38D12A686B699A4234D0AB793B4A012B39D00023EA793949012A53D0297A374A012938D0527A002A3ED1002B49
:405E000043D1FEF71BFF002003F006F901F078FA01F06AFA01F04AFA01F038FA03F0E2FA03F0D0FA01F09AFA01F088FA002384F81035012084F81135A4F8FC3484F8123543
:405E4000BDE8F84303F0E8B8012001F07DFC002001F07AFCC3E70621A9E794F89E12107B01F00F028242CCD1BEE794F89D32517BC3F302138B42C4D1537A33B194F89D320D
:405E8000AA7BC3F342039342BBD1012001F050FC002001F04DFCB4E7CB7A6BB994F89D3213F0700FADD194F89C32AA7A03F01F039342A6D101239BE7012B94F89D3202D06C
:405EC0001A06F0D49DE713F0700FECD199E700BF1882FF1F08B501F01FFB2649264A0B78264843F020030B70137843F02003137001F0A2FB224801F039FA224801F0B4FA12
:405F0000214803F077FA214801F0DEFA01F0B0FB01F044FA01F0C8FA03F08CFA01F0F0FA01F03CFB1A491B4A0B781B4843F020030B70137843F02003137001F0E7F9174855
:405F400003F04AF8164801F089F9164803F022FA154801F0B3F901F0F9F903F055F801F09DF903F037FA01F0C5F9BDE8084001F091BB00BF906400409C640040E5500000A5
:405F8000054C0000714E0000D14F00001D4B00009465004098640040C9570000214C0000214F0000E54D0000914B000038B5204D0020002401F068FB01F0A8FA01F09AFABF
:405FC00001F07AFA01F068FA03F03CFA03F02AFA01F054FB01F046FB85F88442012085F88542A5F8704285F8864201F04DFB204603F012F801F084F901F076F901F056F951
:4060000001F044F903F0EEF903F0DCF901F0A6F901F094F985F81045012085F81145A5F8FC4485F8124502F0F7FF024B1C6038BD7082FF1F1882FF1F002038B50446194DE0
:4060400001F022FB01F05CFA01F060FA01F02CFA01F032FA03F0EEF903F0F4F901F008FB01F00CFB204685F8844285F88542A5F8704202F0D1FF01F03DF901F041F901F065
:406080000DF901F013F903F0A5F903F0ABF901F05DF901F063F985F8104585F81145A5F8FC4438BD7082FF1F30B40546044C00686968AA68EB680FC42869206030BC7047F6
:4060C0001C82FF1F0121002001F010BC38B501F0A3FC88B9032001F0ABFC012824D0012001F0A6FC012804462FD0022001F0A0FC0128044608D038BD01F088FC0028E9D0E4
:40610000032001F035FDE5E700F05EFC78B3274B5A68002AEFD0204600245C6004222449BDE8384001F0A2BC032001F08BFC2149C2B2032001F0DAFC1E4800F043FD01205C
:4061400001F076FC01280446CFD1002000F03CFC164B054618B91A68B2F55D7F17D900240422134901201C6001F080FCBDE7204600F0EEFC40220146022001F077FC2046C6
:4061800000F0A6FC094A53680133536038BD1A6801321A6000F0DCFC40220146204601F065FC284600F094FC9FE700BFC481FF1FCC80FF1F8887FF1F70B5054604200E46F6
:4061C00001F036FC012801D0002070BD044632462946042001F04AFC204670BD2DE9F043A94C83B003F0B2F9237813B903B0BDE8F083002003F006F80646012003F002F86A
:406200000746022002F0FEFF63780546002B70D0A37803F0FF02002B53D1A6F10E036E2B40F2A5806260A260A7F10E036E2B00F2E6802369002B00F0F3802369924E013361
:4062400023612369B3F57A7F53D9062003F02CF8962003F059FB012002F0D4FF8046002003F022F8642003F04FFBB8F1000F40F3C680BB1003EB6703984500F3C08073692D
:40628000013373617369142B33D9804C0123E17C002263F38301212F3261E17472613373B37000F34A817A4A06231370794A23601368A36000F074FC7449E060656000205E
:4062C00030E0237B002B3FD10D2E40F39C80212E00F3B180704A03231370704F704E3978994203D03178994200F0E480002262603370237E644A03F0FF06C3B1062D3FF7F6
:4063000075AF624C0123E17C002663F38301E1742360167600F044FC0346214630466560A360E36003B0BDE8F04300F077BB122D7FF75CAF554C0123E17C022063F38301BA
:40634000E17420601376E5E70D2F60DD212F6CDC544A062313704E4F534E3978994202D0317899426DD0002222613370C1E76368002B50D06368DFF8108101336360636840
:40638000B3F57A7F7FF650AF062002F099FF962003F0BAFA002002F035FF8146002002F08FFF642003F0B0FAB9F1000F40F3A280B31003EB6603994500F39C80D8F80830D0
:4063C0000133C8F80830D8F80830142B7FF62CAF2E4C0122E17C002362F38301212EC8F80430E174C8F8083088F80C3088F8022000F3A980294A032313702C4A57E70023E7
:406400002361636175E7244A0923137065E7254A092313709FE700F0C3FB244B1860A9E700F0BEFB1B4B186007E73E2F6DDC1D4A072313708FE73E2E60DC174A042313701E
:406440004BE72369002B68D02369194A01332361236912880C489A4249D200230B4C09290361397008BF8370E37C012262F38303E374216000F094FB064BE0601B68214641
:4064800000206560A3604DE7CC81FF1F1088FF1F0D88FF1F5488FF1FC887FF1F0C88FF1F5088FF1FCA87FF1FC987FF1F5888FF1F0C81FF1F6368002B37D063682A4A0133E7
:4064C00063606368128829489A4210D20023284C09294360397008BF8370E37C012262F38303E374216000F05BFB224BC5E70B463370FEE600236360A36095E67D2E82DC9D
:406500001D4A05210B461170E7E67D2F3FF77FAF1A4A08210B4611701DE7019200F040FB174B019A186011788EE7019200F038FB104B019A18601178BFE73E2F09DC114A8B
:4065400007231370B2E63E2E08DC0F4A0423137053E70C49082213460A70A7E60A49052213460A7049E700BF0C81FF1FCC81FF1F1088FF1F5888FF1FC887FF1FCA87FF1F88
:406580005488FF1F0D88FF1F0C88FF1F08B5074B00225A7602F046FE02F008FE02F030FEBDE80840024802F0B9BF00BFCC81FF1FDD61000008B502F04DFF034B0021012297
:4065C00099765A7608BD00BFCC81FF1F024B00225A769A7602F08CBFCC81FF1F084B00229A7001211A765A601A619A605A61C207197003D5034A000C59701080704700BF69
:40660000CC81FF1F0C81FF1F034B00229A701A761A705A70704700BFCC81FF1F2DE9F043A84C83B0237813B903B0BDE8F083002002F0E8FD0646012002F0E4FD07460220BD
:4066400002F0E0FD63780546002B70D0A37803F0FF02002B53D1A6F10E036E2B40F2A5806260A260A7F10E036E2B00F2E6802369002B00F0F3802369924E0133236123699C
:40668000B3F57A7F53D9062002F00EFE962003F03BF9012002F0B6FD8046002002F004FE642003F031F9B8F1000F40F3C680BB1003EB6703984500F3C08073690133736183
:4066C0007369142B33D9804C0123E17C002263F38301212F3261E17472613373B37000F34A817A4A06231370794A23601368A36000F056FA7449E0606560002030E0237B94
:40670000002B3FD10D2E40F39C80212E00F3B180704A03231370704F704E3978994203D03178994200F0E480002262603370237E644A03F0FF06C3B1062D3FF775AF624C8D
:406740000123E17C002663F38301E1742360167600F026FA0346214630466560A360E36003B0BDE8F04300F059B9122D7FF75CAF554C0123E17C022063F38301E1742060B3
:406780001376E5E70D2F60DD212F6CDC544A062313704E4F534E3978994202D0317899426DD0002222613370C1E76368002B50D06368DFF81081013363606368B3F57A7F30
:4067C0007FF650AF062002F07BFD962003F09CF8002002F017FD8146002002F071FD642003F092F8B9F1000F40F3A280B31003EB6603994500F39C80D8F808300133C8F8D9
:406800000830D8F80830142B7FF62CAF2E4C0122E17C002362F38301212EC8F80430E174C8F8083088F80C3088F8022000F3A980294A032313702C4A57E70023236163614E
:4068400075E7244A0923137065E7254A092313709FE700F0A5F9244B1860A9E700F0A0F91B4B186007E73E2F6DDC1D4A072313708FE73E2E60DC174A042313704BE72369A4
:40688000002B68D02369194A01332361236912880C489A4249D200230B4C09290361397008BF8370E37C012262F38303E374216000F076F9064BE0601B68214600206560F6
:4068C000A3604DE7CC81FF1F1088FF1F0D88FF1F5488FF1FC887FF1F0C88FF1F5088FF1FCA87FF1FC987FF1F5888FF1F0C81FF1F6368002B37D063682A4A013363606368FA
:40690000128829489A4210D20023284C09294360397008BF8370E37C012262F38303E374216000F03DF9224BC5E70B463370FEE600236360A36095E67D2E82DC1D4A052179
:406940000B461170E7E67D2F3FF77FAF1A4A08210B4611701DE7019200F022F9174B019A186011788EE7019200F01AF9104B019A18601178BFE73E2F09DC114A0723137067
:40698000B2E63E2E08DC0F4A0423137053E70C49082213460A70A7E60A49052213460A7049E700BF0C81FF1FCC81FF1F1088FF1F5888FF1FC887FF1FCA87FF1F5488FF1FF7
:4069C0000D88FF1F0C88FF1F4FF6FF73074A32F810209A4201D000207047054B33F81030981AB0FA80F04009704700BF6088FF1F5C88FF1F10B5044602F0B6FF4FF6FF7391
:406A00000449054A21F8143022F81430BDE8104002F0AEBF6088FF1F5C88FF1F2DE9F041284F294E37F8103036F810200133934208BF0023DFF8948038F810209A423BD07C
:406A400005460C4602F090FF4FF6FF7338F815209A4237F8153027D0013336F815209BB29A4227F81530174919D006EB4502918906EB85056E6803FB01F359B11546611EAF
:406A80003344002211F8014F013203F8014BAC899442F7D802F06CFF0120BDE8F0810022134621F81520E0E79342D5D1002328F8153027F81530D8E7FDF7A2FF0020BDE8EC
:406AC000F08100BF5C88FF1F1081FF1F6088FF1F4FF6FF7270B51B4D1B4E35F81030934222D0044602F040FF35F8141036F81430144D8B42144A1DD0144B4A1C33F81460B4
:406B000092B2964225F8142004BF002225F8142003EB840203EB44039B89546801FB034402F026FF204670BD36F810209A42D8D1002070BD4FF6FF76044B22F8146025F858
:406B40001460E5E76088FF1F5C88FF1F1081FF1F4FF6FF730A4A32F810209A4209D0094B03EB800103EB40039B89486802FB03007047054B33F810309342F0D1002070475D
:406B80006088FF1F1081FF1F5C88FF1F08B50120FFF730FFBDE808400020FFF72BBF00BF38B502F0E1FE054602F0DCFBC043044C206002F0E1FB284602F0DAFE206838BD47
:406BC000E881FF1F70B5044602F0CEFE23680546013B0F2B19D8DFE803F04D7F0887901D18181818181818181890FFF725FAFFF7EDFCFFF709FD0120FFF7FCFE0020FFF763
:406C0000F9FE02F0A1FBFDF709FF2846BDE8704002F0AEBEFFF710FAFFF7D8FCFFF7F4FC642002F071FE0120FFF7E4FE0020FFF7E1FE02F089FB4FF0FF3002F08DFB02F0DF
:406C40004BFB02F091FE064602F08CFBC0432E4B186002F091FB304602F08AFEFFF7A6F9FDF7C0FE6068FFF7B9FC2846BDE8704002F07EBEFFF7E0F9FFF7A8FCFFF7C4FC5C
:406C8000642002F041FE0120FFF7B4FE0020FFF7B1FE02F059FB4FF0FF3002F05DFB02F01BFB02F061FE064602F05CFBC043164B186002F061FB304602F05AFEFFF776F956
:406CC000FFF778FC6068FFF789FCFDF78BFE2846BDE8704002F04CBE201DFFF7E5F92846BDE8704002F044BE04210848FFF764FA2846BDE8704002F03BBE00F03DFD2846D4
:406D0000BDE8704002F034BEE881FF1F2481FF1F024B4FF0FF3243F820207047EC81FF1F30B40B4CCAB254F820300A4D5A40D3B255F82330514083EA1121CBB255F82330A0
:406D400082B083EA112144F8201002B030BC7047EC81FF1F509A0000074A10B452F82030064C5940CBB254F8233010BC83EA112142F82010704700BFEC81FF1F509A000096
:406D8000024B53F82000C043704700BFEC81FF1F2DE9F04172B6C54F00243D4604EB4403AA8857F813000134002102F036FE092C05F10605BD4EF1D1F26BBD4B106851680E
:406DC000802203C3D6F84610BA4802F01BFEDFF89CE3B94FF04607F1B00C002657F8043F23F0FF0413F0FF0315D0013BDDB270190EEB40000EEB460300F1904003F19043A3
:406E0000B330B13313F8012C13F8021B98421155F8D101362E446745E0D140F20324A74BA74A03211980A7481480A749A74BA84C02F52A428C320360A64D0C601360A64C82
:406E4000A64AA74BC0F800542260C1F8002AA54AC0F8003CA448C4F80026A44AC1F8000E01F59E4100F15070C4F8003C2B3110600B7802F5645243F002030B703B32137834
:406E8000A1F5863143F00203137063390B78A2F5863245F6BF5E43F040030B70513A4FF6FF7713789249A4F5124458F8015043F0100390491370503C00208F4B256041F2F7
:406EC000512608608D4D03CBC2F8400DC2F8441D93E8070003C5DFF898C22A80A4F5135403F10C0203CA283CCCF80000CCF8041003F1140207CA03C4A5F6D66522802A7839
:406F0000203342F0080203CBACF6121C2A707C4BC4F80E106121C4F80A008CF80010794801211980784A19230370784C0720108077497848237018252F240C8005701720CA
:406F4000108175488B711F21918103705D201082724973480B70A0F800E0DFF818E293750624CF806F4B52218EF8005080F8684282F87C111A786C4F6C496D4BD2B24FF48B
:406F8000E2643A70A0F88A410E801C784FF4F07004F001041E4602F0DFFC01E0032C0DD033784FF4F07003F0010343EA440402F0D3FC013D04F00304F0D1FEE75D495E4FF5
:406FC0005E4C5F4D5F4E4FF4807207200A800023087002225C484FF0480E237085F800E00B70FF253B70C1213270584B0678057084F8FA171B78DFF8808197F8EF56DBB203
:4070000098F80060524904F5C35403F00700EDB209341B090870F6B2237045F0030487F8EF466FF4EC6046F0030488F800400144C22448480C70484B4FF4046404800C2443
:407040001C70602481F8FC4780F84429434C012083F88E084023424881F8B339DFF81CE12370802404703F4C81F8C6398EF800202023E02280F8582023700A2081F84B3A34
:4070800002F042FCA4F5BB54DFF8F4E0364B88F800601B3C87F8EF564FF0440C0FCB8EF800C007C42380BDE8F08100BF509E000000510140001801401C09004848580040B9
:4070C0004C58004058000140D80001400404C4040404C4000404C40E58080140C4C4C404C4C404C40004C404C4C4C400D81601402811004800760040181A0048F0510040CA
:4071000080400040824000408440004086400040884000408A4000409240004096400040984000400F010049A1460040204200402542004004400040094000400640004095
:407140000840004001400040A2430040CF0100496E5800403C510040FD510040C35A0040D05A00402B5B0040A043004020090000125100409E400040F9460040D45A0040E0
:407180007658004008B502F011FC03680C2B00D0FEE7FEE780B5134FF7B1134E002556F80C0C56F8084C56F8102C03463CB1043A52F8041F43F8041B191AA142F8D156F80A
:4071C000040C1A4620B142F8045BD11A8842FAD1013F06F11006E2D102F0EEFBFDF7CAFBFEE700BF01000000DC9F000008B5114A114B12491A600B68114A43F40073114867
:407200000B600023032B94BF50F823100E490133302B42F8041FF5D10C4B0D4918780D4A0D4B08701A60FFF7B3FDBDE8084002F057BA00BF0004FA050CED00E014ED00E0CB
